:06006300AE071FEE600C69
:0C006900751279AE121512EE60F080F7EF
:010075002268
:10000300751000751109E4F590F50CF50DE5111562
:100013001170021510859008750A01E4F50EF50FAD
:10002300C3E50F9511E50E95105022850809E50AE1
:1000330042088508907FE8120063850908E50A25D0
:10004300E0F50A050FE50F70D7050E80D3050DE522
:100053000D7002050CC39408E50C940040AF80A01A
:0300000002007685
:0C007600787FE4F6D8FD758112020003CB
:00000001FF
