:1000C5000102040810204080FFFF00F7F7F700FF4A
:1000D500FFFF0076767676FFFFFF007F7F7F7FFF4D
:1000E500FFFF007F7F7F7FFFFFFF817E7E7E81FF99
:1000F500FFFFFFFFFFFFFFFFFFFF817E7E5E817F2A
:10010500FFFF007F7F7F00FFFFFF606F6F6F00FFC6
:10011500FFFFFFFFFFFFFFFFFFFFFEFE00FEFEFFED
:10012500FFFF00F6F6E6D93FFFFF817E7E7E81FF69
:10013500FFFF00FDFBF700FFFFFF7076767600FFFF
:08014500FFFFFFFFFFFFFFFFBA
:10014D00E4FDFCC3ED9FEE6480F8EC6480985015DF
:10015D00E4FAFB0BBB00010AEB647D4A70F50DBDA3
:05016D0000010C80DE22
:01017200226A
:060173003EF583E493FF5A
:10017900E4FDEF5480FEBE8004D2B28002C2B2EF29
:0B01890025E0FFC2B0D2B00DBD08E7BA
:010194002248
:10000300E4F508F509E4F50AF50BE4F50CF50DE55F
:1000130009250DFFE508350CFE74E52FF582740004
:10002300120173E509250DFFE508350CFE74DD2F7C
:10003300F5827400120173E509250DFFE508350CFF
:10004300FE74D52FF5827400120173E509250DFFA7
:10005300E508350CFE74CD2FF5827400120173C2CE
:10006300B1D2B174C5250DF5827400350CF583E466
:1000730093F5A07F027E0012014DE4F5A0050DE586
:100083000D7002050CC39408E50C64809480500342
:10009300020012050BE50B7002050AC3940AE50A78
:1000A30064809480500302000D0509E50970020580
:1000B30008C39480E508648094805003020008021A
:0200C300000338
:0300000002019565
:0C019500787FE4F6D8FD75810D020003B0
:00000001FF
