:0C0184000A08C0F9A4B0999282F880909B
:040175007F0A7E007F
:0B017900EF1FAC0670011E4C70F62258
:10000300C2B0C2B1C2B2C2B3E4FBEBC394107480FA
:1000130094A750F4E4F512F513EBFF7E007C037D07
:10002300E812012074082FF8E6F5A0EBFF7E007CB0
:10003300037DE8120120D2B0120175C2B0ED75F054
:1000430064842408F8E6F5A0ED75F06484AAF0D280
:10005300B1120175C2B1EA75F00A842408F8E6F515
:10006300A0D2B2120175C2B2EA75F00A84740825EF
:10007300F0F8E6F5A0D2B3120175C2B30513E51388
:1000830070020512C394C8E5129400408C0B020061
:010093000D5F
:0300000002009467
:0C009400787FE4F6D8FD7581130200DBD4
:10012000BC000BBE0029EF8DF084FFADF022E4CCC3
:10013000F875F008EF2FFFEE33FEEC33FCEE9DEC8C
:10014000984005FCEE9DFE0FD5F0E9E4CEFD22EDD2
:10015000F8F5F0EE8420D21CFEADF075F008EF2F1C
:10016000FFED33FD4007985006D5F0F222C398FD0D
:050170000FD5F0EA22AA
:1000A000020003E493A3F8E493A34003F68001F273
:1000B00008DFF48029E493A3F85407240CC8C33361
:1000C000C4540F4420C8834004F456800146F6DF30
:1000D000E4800B0102040810204080900184E47E3B
:1000E000019360BCA3FF543F30E509541FFEE49325
:1000F000A360010ECF54C025E060A840B8E493A3EC
:10010000FAE493A3F8E493A3C8C582C8CAC583CA16
:10011000F0A3C8C582C8CAC583CADFE9DEE780BECE
:01019000006E
:00000001FF
